:020000041000EA
:1000000000B5324B212058609868022188439860DF
:10001000D860186158612E4B002199600221596106
:100020000121F02299502B49196001219960352056
:1000300000F044F80222904214D00621196600F024
:1000400034F8196E01211966002018661A6600F04E
:100050002CF8196E196E196E052000F02FF8012189
:100060000842F9D1002199601B49196000215960AB
:100070001A491B48016001219960EB211966A021F2
:10008000196600F012F800219960164914480160C1
:100090000121996001BC002800D000471248134993
:1000A000086003C880F30888084703B5996A0420EC
:1000B0000142FBD001200142F8D103BD02B5186610
:1000C0001866FFF7F2FF186E186E02BD00000240BE
:1000D000000000180000070000035F00212200005C
:1000E000F4000018222000A00001001008ED00E03C
:1000F00000000000000000000000000074B24E7A12
:1001000000200420F7010010CB010010CD010010E9
:10011000C9010010C9010010C9010010C901001077
:10012000C9010010C9010010C9010010CF01001061
:10013000C9010010C9010010D1010010D301001045
:10014000C1010010C1010010C1010010C101001067
:10015000C1010010C1010010C1010010C101001057
:10016000C1010010C1010010C1010010C101001047
:10017000C1010010C1010010C1010010C101001037
:10018000C1010010C1010010C1010010C101001027
:10019000C1010010C1010010C1010010C101001017
:1001A000C1010010C1010010C1010010C101001007
:1001B000C1010010C1010010C1010010C1010010F7
:1001C000EFF30580103800BE00BE00BE00BE00BECA
:1001D00000BE00BEF2EB8871D02A0010EC2A00109D
:1001E0003802001090A31AE71E481F49086006C88D
:1001F00081F3088810471D480068002801D019487D
:10020000F3E70DA40ECC002902D000F012F8F9E7B4
:100210001749184A002000E001C19142FCD116495B
:100220008847164988471649884700BEFDE701C937
:1002300001C29A42FBD37047EC2A0010C000002094
:10024000000800202C3200100000042000000420D0
:100250002C320010001004200010042000000000C8
:10026000704700000000000008ED00E0000000D032
:1002700000080020940D0020ED1A0010D502001097
:10028000E51A0010F8B5C04606480749091A8B1050
:10029000C90FC91810B5491003D0044B002B00D06A
:1002A000984710BD00080020000800200000000052
:1002B000054B10B5002B03D00449054800E000BFF2
:1002C000FFF7E2FF10BDC04600000000600D0020F7
:1002D00024290010F0B5DE4657464E464546E0B5A7
:1002E0000027B34B91B003931F80B24B1C209B4659
:1002F0001F6000F0EBFAD02380221B0652059A62A1
:10030000012100221C2000F0CDFAAB4D6420002119
:1003100000F078FE06211C2000F0AAFAA749280068
:1003200001F092FD80235B020A9303001033C201A7
:100330001B0313430B93C0231B030C93A04BA14E31
:100340009A460400102230600AA918000D9701F0A7
:1003500083FBA0235246DB021360892251469A4B4D
:1003600012048A60CB60280053462200002101F06D
:10037000A5FD01222B6813432B6007AB9946934BD5
:100380000493934B059380228B4C520063681F00AB
:1003900017401342FAD1FF23226A1340402B00D1A9
:1003A000D8E0412B37D0002B22D101250620002197
:1003B00000F028FE23680021AB43236032685346D7
:1003C00006327D4801F07AFD802123687A4A2B436A
:1003D0002360490253680B42FCD180217D4B4902C6
:1003E0001361754A53680B42FCD17B4B1361CAE71A
:1003F0000125C82023680021AB432360400000F0A2
:1004000001FE5346002132686B4801F057FD236816
:100410002B432360B7E74B46049A002403CA03C367
:10042000128800211A8000230E930F945B46B04679
:1004300001244E468C460A970B970C970D97029312
:1004400005E0EC4679088B0063449B6A9C462300D8
:1004500006AA93463B4089001B0128311D005944E0
:10046000220018390191210030780E350240AA404F
:100470005D1CA940C5099D40521821005519DA1C80
:10048000914042066D18D20F991C8A402100AA188B
:100490005D1DA94085065218ED0F191D8D402100E4
:1004A0005519DA1D9140C2066D18D20F991D8A4068
:1004B000AA181D0021000935A940521808218B46B1
:1004C0009B4459460507ED0F8D4055191A00210030
:1004D0000B3291406D180A218B469B4459464207C6
:1004E000D20F8A40AA181D0021000D35A9401D0019
:1004F000521821008007C00F0C350F33A8409940D7
:100500001218019B5218624401371A6001360A2FF3
:1005100097D14646029B284D9B460F9B00210333F3
:100520000F932B682800A3432B6032685346063292
:1005300001F0C4FC80222B680AA923432B605202DD
:1005400008686B681342FCD1043110AB28618B4200
:10055000F6D118E78021184A490053680B42FCD1B4
:10056000136A8022144952004B681D001540134243
:10057000FAD10B6A5B461B68002B00D0B9E05A46E3
:10058000164B9B6A13600022039B059948461A800C
:1005900000F012F9002300210A930B930C930D93A2
:1005A0000E935B46B04601244E468C4602931DE0F6
:1005B000900D0020540D0020000020502429001030
:1005C00080090020400D00209C031E0450290010CB
:1005D000440D0020AAEBAAAAAAFA03000040054095
:1005E000EC4669088B0063449B6A9C46230006AA7C
:1005F00093462B4089001B0128311F0059442200DB
:1006000018390191210030780E370240BA405F1C42
:10061000B940C7099F4052182100D719DA1C9140F0
:1006200042067F18D20F991C8A402100BA185F1D1C
:10063000B94087065218FF0F191D8F402100D719A6
:10064000DA1D9140C2067F18D20F991D8A40BA1850
:100650001F0021000937B940521808218B469B44DE
:1006600059460707FF0F8F40D7191A0021000B3298
:1006700091407F180A218B469B4459464207D20F6E
:100680008A40BA181F0021000D37B9401F005218C8
:1006900021008007C00F0C370F33B8409940121863
:1006A000019B5218624401351A600136082D97D11A
:1006B0004646029B154D9B460E9B002103330E932D
:1006C0002B682800A3432B6032685346063201F0A2
:1006D000F5FB80222B680AA923432B60520208688D
:1006E0006B681342FCD104310FAB28619942F6D1FB
:1006F00049E6074A906AC01A01F01EF9054901F05F
:1007000000F901F041F982B23EE7C04600002050F6
:1007100000400540B356824610B50249024800F039
:1007200005F810BD602A0010440D0020F8B5002324
:1007300043600360836083814B780A781B02134314
:100740005BBA9AB2060083809000801840000F00C8
:100750008C1C01F087F9B3883060002B29D002236C
:100760005B420025DF1B00E030683B19C01863784E
:1007700022781B0213435BBA0380A11C08220230BB
:1007800001F06AF90135B088ADB20A348542EBD385
:100790000023B38100280AD0002231680C8801337D
:1007A00012199BB292B20A318342F7D1B281300062
:1007B000F8BDB381FBE7C046F8B5CE464746060014
:1007C00080B5002A0CD10832274901F045F90122F1
:1007D0003378134333703000C0BCB946B046F8BD1F
:1007E0008D235B009A4204D80822204901F034F995
:1007F000F1E71C3AFF3A4B8992B293422DD04A81DD
:10080000D21A93B200229446904699468D880F8959
:10081000CB8808680137BFB29A00D218520009E0AD
:10082000845ABC4208D801339BB20027CB800A32DD
:10083000AB4215D29D42F3D86246013292B2944641
:100840004A45E7D30F819A00D3185B00C1180822EC
:100850003000023101F000F9BDE7CB880868F2E70B
:100860004346CB800023D7E7642900105C290010A1
:10087000094A83009A1810B5146840225440803207
:100880002240064CC000A44663441A60044B9C46B8
:100890006044416010BDC04604C0014004D0014026
:1008A00000400140074B8000C3181B68C90092003C
:1008B0000A435A400C231340034A944660440360A1
:1008C0007047C04604C0014004D001400123D0223B
:1008D0008340120693629361094A83009A18116853
:1008E0004022514080320A400649C0008C46634491
:1008F0001A60054B9C460523604443607047C04620
:1009000004C0014004D00140004001400FB400B5D4
:10091000084883B001F028FA049B002B07D005A9F2
:100920001800019101F0AAF8034801F01DFA012016
:1009300001F0BCF86C2900107C290010EFF3108046
:1009400072B6034A1368002BFCD0BFF35F8F704769
:100950002C0100D0BFF35F8F0022024B1A6080F39E
:10096000108870472C0100D070B5EFF3108C72B670
:100970000D4D2B68002BFCD0BFF35F8F0724CB08F5
:10098000C618C05C01230C40A3401C000440034275
:1009900007D118433070BFF35F8F2C608CF3108841
:1009A00070BD1000FFF7B2FF2C0100D0044A107890
:1009B000431CDBB2172B00D9102313707047C046BD
:1009C000980100200021044B044ABFF35F8F02C34B
:1009D0009342FAD17047C046000100D0800100D098
:1009E000054B064A1360064A136053609360D36058
:1009F00013615361936170478080808000E400E060
:100A000004E400E01F2318401E3B8340002905D06A
:100A1000C021044A490053501360704780220149A5
:100A20008B50FAE700E100E070B50D00EFF310869F
:100A300072B60F4A1368002BFCD0BFF35F8F0D4BCB
:100A400010309B6884001B590B4A934203D09D428F
:100A500001D000F095FD074B9B681D51BFF35F8FE0
:100A6000BFF35F8F0022024B1A6086F3108870BDBF
:100A7000240100D000ED00E0C1010010024B9C46B3
:100A800061448900016070474000003470B5114C2A
:100A9000114DAC420FD2FF262368002B0CD0FFF77C
:100AA00085FF01002000FFF7E9FFA680BFF35F8FFD
:100AB0000834AC42F0D370BDFFF778FF010020008E
:100AC000FFF7DCFF2671BFF35F8F0834AC42E3D33E
:100AD000F1E7C046F8070020000800200A4B19681B
:100AE000EFF3108072B60A68002AFCD0BFF35F8F64
:100AF0001B68BFF35F8F00221A6080F3108840BF2D
:100B0000002000217047C0468C0D0020F0B5DE4665
:100B100057464E464546E0B587B0EFF305830322BE
:100B200001251A40954091008846A946B14B039291
:100B30005C58B14B1D60B14B04934B46B0484363C6
:100B40000823E55E002D37DAA3881BB2002B00DBFB
:100B5000ADE0A379002B00D0EEE00823E15E002990
:100B600020DB4B0062695B18DB00D3189E68DD68F0
:100B7000731C00D10DE1A24801004144826A0B6957
:100B8000B71A9B1A9F4215D30123026A0398834028
:100B90001A420FD09A4800F03BFB8D4202DCCCD1C8
:100BA0008642CAD940BF07B0F0BCBB46B246A94690
:100BB000A046F0BD0E61EDE762696B0092465B19DD
:100BC000DB009A4453469E68DF6800F021FB8F42A9
:100BD000BADC00D1FFE0002F00DAE4E052465346D1
:100BE00052691B699346049A934200D1D5E052465C
:100BF0000821605E528800045946104398470090CF
:100C000001910099019A0B001000134300D1CAE032
:100C100013000A00B61A9F41002806DB784800F04E
:100C2000F7FA009E019F36184F4153469E60DF60E1
:100C300000229A5E002A00DA86E75300991860695C
:100C4000C900411802938B68C9689B46B94200DD10
:100C50007AE702D1B34200D976E708239C46A44440
:100C6000059565462281A446029B2C0006E05300B0
:100C70009918C90041188D68C968AB469B18DB00FC
:100C8000C318B94206DC00D1AFE01C000023E25ECD
:100C9000002AECDA230064469C4653461A806346D9
:100CA000059D1D80A3881BB2002B00DA51E7226945
:100CB000EFF3108172B61368002BFCD0BFF35F8F87
:100CC0000123A7885B42A3803FB22369BFF35F8FF4
:100CD00000221A6081F31088002F00DA39E7230020
:100CE000083322009A4666697B00DB19DB00F318A3
:100CF000996850468C460824115FDD68002910DB96
:100D0000029306E0AB4240D00023E15E20000029C0
:100D100006DB4C006418E4003419E368AB42F1DDF3
:100D2000029B078000201F5E1980002FDCDA140070
:100D3000A379002B00D110E70023A371260008231C
:100D4000E15E08364B1C00D12CE7B446656903E030
:100D500084464B1C00D100E74B005B18DB00E81811
:100D60000A00E95E43881BB2002BF1DA01267642C5
:100D7000F7178660C7600826A35F9342E9D06346F1
:100D80001980238903802281E3E7A3686345BBD9E7
:100D9000C6E76B1C00D0EEE6FCE65B4658461B69D6
:100DA000984700281BD153461B8822692381EFF303
:100DB000108372B611680029FCD0BFF35F8F5146D3
:100DC00062880A8022696580BFF35F8F002111600D
:100DD00083F31088B8E6864200D8FCE6B4E65B46AA
:100DE0001A685B68009201930BE7B34500D84CE7A3
:100DF00050E7C046780D00203C7005400D0B0010F8
:100E00000040054070B52E4C2569002D04D00A2104
:100E10002C48FFF733FE70BD2B4E0321300000F04D
:100E2000EDF9E660FFF7C2FD284B03229C46D02374
:100E300022701B061B6801216370254B6044A36070
:100E40000F23800020610220638063694942A180F2
:100E500019800231198647311D83585218315A5270
:100E600075325C3999521832013199521832013178
:100E70009952183201319952083518329D52023177
:100E8000183299521832013199521832013199525F
:100E90001832013199521832013199521832013108
:100EA00099520C4B0C49DC6001303562FFF7BCFDF8
:100EB00001210320FFF7A6FD084B1D60A7E7C046F0
:100EC0009C0100208C0D00200040054040000034B3
:100ED000FFFF1000780D00200D0B0010386005405A
:100EE00070B501000469EFF3108C72B62068002819
:100EF000FCD0BFF35F8F02200D5E4C696800401983
:100F0000C00024180869002D36DB26884E80BFF308
:100F10005F8F002606608CF31088E3606388049876
:100F2000013320615B0405985B0CA26060611A1CB0
:100F3000002B1FD093B22804628018430A69EFF394
:100F4000108C72B61368002BFCD0BFF35F8F8B88B8
:100F500023808D800B69BFF35F8F00221A608CF3B2
:100F600010880B7801329A40CB6808498C4663445C
:100F70001A6070BD0122DDE7BFF35F8F00230360BD
:100F80008CF3108801204042F3E7C0463C2000006B
:100F900010B543890A1493421ADD53009B18426925
:100FA000DB00D3180469EFF3108C72B62268002AB4
:100FB000FCD0BFF35F8F5A88090494B2090C8A42AF
:100FC00008D00369BFF35F8F00221A608CF310888A
:100FD000002010BD8022120214435C8001230269AC
:100FE0008371BFF35F8F002111608CF31088044977
:100FF00002788C469340C268012062441360E8E79F
:101000003C200000F0B5C64600B582B004000D00DB
:1010100000F006F924184D41002D02DA01242F4D6D
:10102000644206267642F71736196F41AF4214D84C
:1010300011D000F0F5F832003B00121A8B41002B62
:1010400015DC002B46D02000290000F0F3F802B098
:1010500080BCB846F0BDA642EBD90026002700F0C0
:10106000DFF832003B00121A8B41002BE9DD00F063
:10107000D7F832003B00121A8B41002B0ADB002309
:101080000193174B3200009316483B00FFF728FFEF
:101090000130D8D000233900B0469C46124A13488C
:1010A000536A994204D8966A4645CCD29942CAD12D
:1010B0000668EFF3108772B63368002BFCD0BFF3DD
:1010C0005F8F0368BFF35F8F66461E6087F31088EB
:1010D00020BFE5E7002AB6D0C9E7C046FFFFFF7F83
:1010E000DD0A00109C010020004005408C0D00200E
:1010F000F0B557464E46DE464546E0B506000F00C1
:1011000085B0EFF3058399468B46002B12D0384902
:1011100000204B6ABB4206D38A6ADB1B591E8B41F7
:10112000B2424041184305B0F0BCBB46B246A946A6
:10113000A046F0BD2F4B9A46DB68984653461B7875
:101140004046039300F064F84246039B04000433D6
:101150009B009B580D001B1A39003000001BA94151
:10116000894510DC0DD020BF214A0020536A5B4521
:10117000D9D3926ADB1B591E8B41B24240411843BE
:10118000D1E78342EFD900F04BF832003B00121A4E
:101190008B41002B1ADB00230193174B3200009385
:1011A00050463B00FFF79CFE011E0FDD104B5A6AB4
:1011B0005A451BD39B6AB34216D35046FFF7E8FE4D
:1011C0000B4A0020536A5B45ADD3D2E7084A0020A2
:1011D000536A5B45A7D30020926ADB1BB2424041B1
:1011E0005A1E934118439EE75A45E6D120BFE4E7D3
:1011F000004005409C010020DD0A001010B5024AA5
:101200000248FFF7B1FB10BD80290010080D002037
:101210000300416A0A00986A596A8A42FAD1704703
:10122000034B596A0A00986A596A9142FAD1704789
:1012300000400540064A536A9942FCD807D1044B46
:1012400002E05A6A914202D19A6A9042F9D87047F4
:1012500000400540F8B5DE464E4657464546E0B5E7
:101260008B4605000A991800160000F0B3FA0A9B95
:101270006C001F02324B64199C46A40064446368EE
:1012800081469F4200D967602B1FDBB29846012B35
:1012900030D9C02380229B01E31812011A60294B28
:1012A000AD0059599A4600291BD17301E0262268E6
:1012B00053401E40802342465B01E3181E60012A12
:1012C00030D9802380229B01E31812011A60534613
:1012D0004A4667605A51F0BCBB46B246A946A04692
:1012E000F8BD586900F076FA013043001B18033B43
:1012F000FDD2DAE75B46012BCBD1C02303229B0151
:10130000E3181A60023AA3681A42FCD07301E0267F
:101310002268AD0053401E4080230A4A5B0192467A
:10132000E3181E605A462168514003220A401A60A1
:1013300001225B469A40A3681A42FCD0C1E7C0462E
:10134000008000400C0D0020F0B546464F46D646C2
:10135000C0B51F00344B44009C462418A4006444CC
:10136000636888461600FF2B02D880235B00636009
:10137000031FDBB29A46012B30D9C02380229B0188
:10138000E31812011A60294B850059599946002922
:101390001BD17301E026226853401E408023524631
:1013A0005B01E3181E60012A30D9802380229B0153
:1013B000E31812011A6080235B0063604B465F51A3
:1013C000E0BCBA46B146A846F0BD586900F002FA42
:1013D000013043001B18033BFDD2DAE74346012BE3
:1013E000CBD1C02303229B01E3181A60023AA36801
:1013F0001A42FCD07301E0262268850053401E404B
:1014000080230A4A5B019146E3181E604246216828
:10141000514003220A401A60012342469340A268C9
:101420001342FCD0C1E7C046008000400C0D0020F4
:10143000014B8000C05870470C0D0020F8B5040027
:1014400021481E0017000D0000F0C4F9010038000B
:1014500000F0C0F9069B36041B031E432368002BD3
:1014600020DB1A4B1A49E3185A1E9341802292013D
:1014700094465B421B0B174A1B0363441360164AD6
:1014800013601F000A689743FBD1144B2560E218D4
:101490002123A06013602368002BFCDA0823E66098
:1014A0001360F8BD3F2322681340AB42D9D1A36833
:1014B0001B051B0D8342D4D1EE22E368D2021340F8
:1014C000B342CED1EDE7C046001BB7000040FDBFE0
:1014D00008C0004000E0004000F000400430000080
:1014E0008023024A9B000B43D36270470080054073
:1014F000002310B50100988A1B8B984710BDC04689
:10150000162310B50100188802331B88984710BDB8
:10151000F8B54746CE4680B50F1E18D0142399461D
:10152000043304000025012698464B46188843469C
:1015300021681B88984701C4431E98410135064025
:10154000AF42F2D13000C0BCB946B046F8BD01266A
:10155000F8E7C046AA23064A1B0113608D235B00EF
:10156000D3600449044B19605368002BFCDA7047C0
:101570000040024000B0FA00006002407047C046E0
:1015800010B50148FFF7C2F9A429001070B5074D46
:10159000074EB54209D20024013E761BB60808CD9D
:1015A000984723000134B342F9D170BDE028001000
:1015B0001C290010054B064A06491A60064A074BCB
:1015C0001A6010000B689843FBD1704700E00040A0
:1015D000BFCDFBFE08C00040FE7F3C0000F0004095
:1015E000044BDB6C002B03D18022034BD2021A6028
:1015F0007047C046000011504C201150044A054B62
:101600001A60054A1368DB018033FBD17047C0467E
:10161000FFFFFF0100F0004008C000404022034BE4
:101620009A675A671A67DA667047C04600F0014049
:1016300010B5FFF7C7F910BDF8B52749274C284D5D
:10164000641AA6103200302E00D9302228009200F1
:1016500000F002FABC2C3BD830202F232C19640751
:10166000204A801BE40F9B1B052B16D93700002C4A
:1016700002D0B300771CEA50001B33199B004108CD
:10168000EB18C900C9181A605A6008339942FAD198
:10169000012303421CD09843C619B300EA50731CBF
:1016A0002F2E15D09B00EA50B31C2E2E10D09B007D
:1016B000EA50F31C2D2E0BD09B00EA50331D2C2E2C
:1016C00006D09B00EA50731D2B2E01D09B00EA50E0
:1016D000054B9D60F8BDC04600010010C001001020
:1016E00000000020C101001000ED00E0002310B553
:1016F000294C82B0A367FFF72DFF0122274B1A6008
:10170000636C012BFCD10322254B1A60224A936B98
:10171000012BFCD1013300930121224A22480433DA
:10172000FFF78CFE052301210093204A2048FFF794
:1017300085FE0022022104201E4BFFF705FE002239
:10174000012105201C4BFFF7FFFD0022002107208F
:101750001A4BFFF7F9FD002200210820174BFFF775
:10176000F3FD8023DB000093002200210920134BAE
:10177000FFF770FD0022104B00210620FFF7E4FD6B
:101780000420FFF755FE0E4900F024F80100002068
:10179000FFF7A6FE02B010BD008000403CB0004044
:1017A00030B00040002F685900800240008C86470E
:1017B00000C00240001BB70040597307006CDC02F8
:1017C00040420F0001480421014B1847C00100208E
:1017D00011150010114A936F9B0813D210665166C1
:1017E000002905D0FFE7FFE7FFE7516F106F704753
:1017F00004B5002801D00020C04301F061F80021A9
:1018000004BDC046F0B5146E556E576F166FFFF7E6
:10181000E5FF1466556657671667F0BD000000D0F7
:10182000132370B51D78012D19D014DD1F48FFF763
:1018300067FE06001E48FFF763FE1E4C8022310043
:10184000200000F009F9022D2DD01B48FFF750FEB3
:101850001A4B186070BD1A4B164CA364F5E7184B71
:10186000144C23606360A360E36023616361A36140
:10187000E36123626362A362E36223636363A3633E
:10188000E36323646364A364E36423656365A3651E
:10189000E36523666366A366E36623676367A367FE
:1018A000E367A364D1E7064BA364CEE7534400008B
:1018B00053460000900900204C330000880D0020A2
:1018C000C518001007B5604601880A0A0230DF2AF1
:1018D000FAD1C9B2820804D30288408800041043B8
:1018E00000E00068014A5050039007BD90090020B5
:1018F0004840414048400E4B5B6818470C4B1B6802
:1019000018470C4A936F9B0802D2094BDB681847B3
:10191000F0B5146E556E576F166FFFF7F6FF054A58
:101920001466556657671667F0BD014B9B681847EC
:10193000900A0020000000D0491A002808D108466B
:1019400070470000C10FC90700D54042002817D0DA
:10195000F44603B40B4B1B68984706BC81409E3885
:101960004042803107D20B0607D04900490AC00522
:101970001043084360470130F8E7490A8902F5E758
:1019800070470000880D0020014B5B6A184700007B
:10199000900A0020132310B512481C78FFF7B0FD01
:1019A0000100012C0AD003DD80220F4800F054F81A
:1019B0000E48FFF79DFD0E4B186010BD0A4C5422D7
:1019C000200000F049F80B4B6365A365E3652366CF
:1019D0006366A366E36623676367A367E3672362BF
:1019E000E361E5E753460000900A00204C33000015
:1019F000880D0020F919001007B5604601880A0A11
:101A00000230DF2AFAD1C9B2820804D302884088A2
:101A10000004104300E00068014A5050039007BDE5
:101A2000900A002010B5040000F096FA002804D0B7
:101A3000034B04199C4200D810BD0248FEF766FF14
:101A400000000420B029001001480421014B184770
:101A5000D001002011150010014B5B6818470000F1
:101A6000D001002010B5FFF7DDFF10BD10B5002834
:101A700000D110BD00F02EF9FBE7C04610B5094AB1
:101A80000300146884B0002C08D00122009106489D
:101A9000524203A9A047012004B010BD00F064F930
:101AA0000020F9E75C0D00206D1A001000BEFDE774
:101AB000094A03001068002805D00849C3188B4262
:101AC00007D81360704706480449C31810608B425A
:101AD000F7D901204042F5E7580D0020000004200E
:101AE000940D002010B5FFF7E1FFC04670B5FFF779
:101AF0004DFD074D074EB54209D20024013E761B2D
:101B0000B60808CD984723000134B342F9D170BD1F
:101B10001C29001024290010030010B50800110032
:101B20001B68984710BDC046F0B5C64600B5437D5A
:101B300007000C001600002B46D0002A17DD0B789A
:101B40000A2B24D000239846012E13D0012529000A
:101B5000635C01350A2B26D0B542F8D1464509DC35
:101B6000A419013C23780D3B5A4253413B7580BC7C
:101B7000B846F0BD4346E018A419F11A013C3B6891
:101B8000984723780D3B5A4253413B75EFE7037D5D
:101B9000002BD7D102210F483B689847012EDFD098
:101BA00001239846D2E7631E5B5C0D2BD4D0884599
:101BB00004DA4346C91AE0183B68984702210548F1
:101BC0003B68A8469847C7E703681100200098477C
:101BD000CDE7C0465C2A0010F0B54546DE464E46CD
:101BE0005746E0B583B091461C0080460D00FFF7D4
:101BF00017FB0023304A12184B41002B02DA012256
:101C00002E4B52422E4908008A4600F061FE070022
:101C10006B1C03D1404600F0C9FC0500002C27D006
:101C2000284E294B1C68002C18D04B46002B21D184
:101C3000264B994602E02469002C0FD02368002B24
:101C4000F9D04B461B68002B01D09C42F3D12000F9
:101C50002A004146B0472469002CEFD1002F26D13D
:101C6000280003B0F0BCBB46B246A946A046F0BD72
:101C7000174ED6E7154B99460A239B4602E0246986
:101C8000002CEBD02368002BF9D04B461B68002BAF
:101C900001D0A342F3D12A0041462000B0476B4651
:101CA0005A462000DA71D91D0122B047E7E75046B5
:101CB00000F0FEFDD4E7C04640420F00FFFFFF7F6B
:101CC000F8070020291B0010340D00203C0D0020D7
:101CD000191B0010F0B5CE46474680B583B06B4661
:101CE0000600DD1D2870FFF79BFA0023194A121821
:101CF0004B41002B02DA0122174B524217490800D0
:101D0000884600F0E5FD164B81461C68002C14D077
:101D1000144F02E02469002C0FD02368002BF9D067
:101D20003B68002B01D09C42F4D120000122290005
:101D3000FFF7FAFE2469002CEFD14B46002B05D1AA
:101D4000300003B0C0BCB946B046F0BD404600F01C
:101D5000AFFDF5E740420F00FFFFFF7FF8070020CF
:101D6000340D00203C0D002070B5040000F01EFC76
:101D700001230100050001222000FFF72DFF084B81
:101D80001C68002C06D06368002B05D09847246996
:101D9000002CF8D1280070BD2469002CF3D1F9E79C
:101DA000340D0020F0B5CE46474680B58B79002B28
:101DB00042D10523CB56002B01DB9A4239D1204B6F
:101DC000204CC3181B0D9B009C46A1462300644673
:101DD0001B590D7998460123AB40013B9340444683
:101DE00046461C40334221D1002D14D080260F6876
:101DF000B6016300FD5AB54200D2AD181319123373
:101E00009B001D500B790134A342F2D80121994067
:101E10000B00013B9340414619430B006046494685
:101E20000B501000C0BCB946B046F0BD092040427E
:101E3000F8E70B204042F5E714204042F2E7C046A5
:101E40000000E0AF000D0020F8B506000D00FEF721
:101E500075FD0124174B1849F3181B0D9B00070053
:101E600005225858297920238C40AA56013C5B1A38
:101E7000002A11DB9A420CDC9440204209D129004F
:101E80003000FFF78FFF04003800FEF763FD2000ED
:101E9000F8BD01246442F7E7002B02DA07E0013BBA
:101EA00005D3210099401A000842F8D1E7E7092438
:101EB0006442E9E70000E0AF000D0020F0B5012525
:101EC0008D400468AC430460002B2ED04D006C188C
:101ED000E400041926001F68C83637609F6804367E
:101EE00077605F68DC343760DB6823606B18184DFF
:101EF000DB00AC468025C41864442D0625602560AF
:101F0000144C0D1D8C40846001242600AE408025B9
:101F100008318C401F21AD014519C0180A40D83046
:101F20002E602C6002600020F0BD4D006C18E400B3
:101F3000041926008027C8367F023760C0273F0378
:101F4000B760F82704367F02DC3437602360CDE7C2
:101F5000D01000000101010110B5034B0100186809
:101F600000F004F810BDC046F0050020F0B54E4664
:101F70004546DE465746E0B50D000B35060085B0F8
:101F8000162D21D8102900D9D4E000F0D5FA10255B
:101F900018230221CA4FFB181A005C68083A9442C1
:101FA00000D186E103226368A1689343E268CA60B6
:101FB00091600121E3185A6830000A435A6000F02A
:101FC000C3FA20000830B8E007239D4300D5B1E0F4
:101FD000A94200D9AEE000F0AFFAFC235B009D42BD
:101FE00000D2E0E1690A00D1AEE0042900D9A1E104
:101FF00038239846A90988443931CB000822524237
:102000009446AF4FFB189C446346DC68A44514D04B
:10201000032399460B0061469C4607E0E068002ACE
:1020200000DB40E1814200D141E104004A4663689F
:1020300093435A1B0F2AF1DD41463A003C690832AE
:10204000944200D11EE1032063688343581B0F288C
:1020500000DDACE13A617A610028AADA7A6890463C
:1020600080229200934200D336E1DA085809012316
:102070008340404618438046D300DB199A68786055
:10208000E360A2609C60D46001208B1098404045C2
:1020900062D8434603420AD1032399434346400092
:1020A0000431034203D1400004310342FBD0032337
:1020B000B3469C460E00B8460190F0004044010033
:1020C000B246CB680BE064465A681F00A243DB6847
:1020D000541B0F2C00DD39E1002C00DB53E1994249
:1020E000F1D101239946CA44534608319B07E8D1F0
:1020F000032205E003680838013E834200D013E262
:102100003242F7D14346019A5B689343424653609B
:10211000019A520001929A421CD8002A06D119E075
:1021200004229146019ACA44520001921342F7D008
:102130005646C2E70C233360002005B0F0BCBB4616
:10214000B246A946A046F0BD80233F2240219046DA
:102150009B0053E75E4647460322BC68636893438F
:102160009846AB4203D35B1B0F2B00DD8DE02300B1
:1021700043440293534B08201B6810335B190193AF
:1021800000F002FA504903900B688A46013306D0EA
:102190008446019B4242013B63441340019330005B
:1021A000019900F0D9F903008146013300D11CE107
:1021B000029B834200D916E1444B02989B461A6861
:1021C000019B59469C4662440A600399013948457F
:1021D00000D157E153461B68013300D15EE14B4605
:1021E00002981B1A9B185A46136007234A46484612
:1021F0001A400292184200D115E103980133844637
:102200009B1A019A99444A44019263440A409B1ADA
:10221000194030008A4600F09FF9431C00D158E174
:102220004B46C01A0300534401935B461A680120D1
:1022300052441A604B464946BB60019B03434B60C6
:10224000BC4213D043460F2B00D82BE107210C3B97
:102250008B4361680140052019436160E1184860C3
:1022600088600F2B00D93FE14B465B68184908682E
:10227000904200D20A6017490868904200D20A6072
:102280004C46B4E07B689846FEE6012229001343E1
:102290001143651961603000BD606B6000F054F956
:1022A0002000083049E7A268D060826081E661467C
:1022B000C3E6DC680231A34200D1BEE672E6C04646
:1022C000E8010020C40B0020E0010020940B002056
:1022D000BC0B0020C00B00205A0A042A7CD9142A07
:1022E00000D9B0E010005B3082465C32D20008209A
:1022F00040428446BA189444624692680B30814644
:10230000944500D186E00800A2466146844602E07A
:102310009268914204D04C465068A0439842F7D846
:10232000D368614654469C466346A260E3609C6065
:10233000D460A9E6142967D9542900D98CE06E230A
:102340009846290B88446F31CB0057E6BA460120E6
:1023500051468446491905435046456085684746BD
:102360006046EB605E469D6053463961796120436B
:1023700008374860CF6030008F609C5000F0E4F870
:1023800050460830D9E6BA4601205E4652445168AC
:1023900001435160BA683000D3609A6000F0D4F80D
:1023A00038000830C9E62B00E9080833F2E5611966
:1023B000884601218C460D4341466560396179614B
:1023C000CA608A60624602434A60E050300000F012
:1023D000BBF820000830B0E69A09100039323830D6
:1023E0008246D20083E7BC4241D0BC6863680322C6
:1023F00093431A005B1BAA4202D30F2B00DD44E774
:10240000300000F0A1F897E65B23984688445C31E1
:10241000CB00F3E553469810012383404046184310
:102420008046786080E7019B039A4B440B40D31AA7
:10243000194030008A4600F08FF8431C00D0EFE6C8
:1024400000239A46F1E6542A2ED81A0B10006F3258
:102450006E308246D2004AE7AA235B0099422ED80A
:10246000DD3B9846E90B88447831CB00C6E5304B1C
:102470009B461A68019B9C465B4662441A60039B1C
:10248000591EA7E64846084200D0A3E6B96843446F
:10249000894601210B4349464B60E7E653464A46CD
:1024A0001A60A2E64860ABE7AA204000824226D824
:1024B000DA0B1000783277308246D20017E71D4BD6
:1024C000994226D87C239846A90C88447D31CB00BC
:1024D00094E5019A029B94464A46083B63449B1A42
:1024E000019300239A46A0E621003000083100F055
:1024F000E5F85B461A68BB6899465B68B6E60D4826
:1025000082420CD89A0C10007D327C308246D20078
:10251000EDE6FE237E227F2190469B006EE5FE22A3
:102520007E2092008246E2E643465B68F0E5C046C4
:10253000940B00205405000010B5024800F032F85A
:1025400010BDC046900B002010B5024800F02CF8DA
:1025500010BDC046900B0020002370B5064C05004E
:1025600008002360FFF7A4FA431C00D070BD236865
:10257000002BFBD02B60F9E7380D0020014B1868C9
:102580007047C046F0050020802310B55B01082885
:1025900001D1180010BDFFF7F1FF16230360173BB0
:1025A000F7E7C0467047C0467047C04610B583077E
:1025B0000AD00300032102E001330B4205D01A7850
:1025C000002AF9D1181A10BD030019680C4A0D4CE5
:1025D0008A188A4322420FD15968094A04338A185B
:1025E0008A43224208D15968054A04338A188A432B
:1025F0002242F1D000E001331A78002AFBD1E1E752
:10260000FFFEFEFE80808080F0B5C646060000B565
:1026100008200D00FFF7B8FF04003000FFF78CFF23
:10262000234B210098469B685F6803239F43380033
:102630001138401B0019FFF7CDF8451E6543AC4229
:1026400008DC00213000FFF787FF43469B68DB1959
:10265000984206D03000FFF777FF002080BCB846D4
:10266000F0BD30006942FFF777FF01300ED0012244
:1026700043467F1B9B6817430E4A5F601368300018
:102680005B1B1360FFF760FF0120E7E700213000CC
:10269000FFF762FF43469A68831A0F2BDADD064C78
:1026A00004492468001B086001210B435360D1E7F3
:1026B000E8010020940B0020E0010020F0B5D64690
:1026C0004F46464605000C00C0B5002948D0FFF72C
:1026D00033FF2100012708394B6803209C46BB4388
:1026E000CE18726882436046384080466A489146F8
:1026F0008468B44200D17CE07260B41864683C40E5
:10270000A2464446002C30D10C68A446091B8C68B4
:102710006344A4460824A0468044C4455CD0CC68E9
:10272000A04664464246E26094605246002A1FD0AA
:102730001F434F60336080229200934230D2DA0808
:102740005C090123A340446823434360D3001B1862
:102750009A68CB608A609960D1602800FFF7F4FE28
:10276000E0BCBA46B146A846F0BD5246002A0FD199
:1027700001224B44CF18BC46B468484F1A43BC42B0
:102780005BD0F668E660B4604A6062461360D2E7E8
:1027900062463A434A608022336092009342CED32D
:1027A0005C0A042C3FD89C09260039343836E400F2
:1027B00004192268083C0327944203D14EE0926832
:1027C000944203D05068B8439842F8D8D468CC609B
:1027D0008A60A160D160C0E75246002A35D14B44DF
:1027E0001A00B068F3681743C36098604F608A505E
:1027F000B3E74B441A004346002B06D10B68C91AB5
:102800008C68D218CB68E3609C60012313434B6053
:10281000234B81601B6893429FD8224B2800196884
:10282000FFF7F2FE99E7142C13D9542C1DD81C0B7A
:1028300026006F346E36E400BAE7E160A1604A60BA
:102840006246CC608C60136087E71F434F60336043
:1028500083E726005C345B36E400A9E70123B61069
:10286000B340466833434360B1E7AA225200944222
:1028700005D8DC0B260078347736E40098E70A4A5E
:10288000944205D89C0C26007D347C36E4008FE70A
:10289000FE247E26A4008BE7E8010020F001002042
:1028A000E4010020C40B002054050000F8B5C04628
:1028B00001B40248844601BC604700BF59010020B2
:1028C00001B40248844601BC604700BF810100207A
:1028D00001B40248844601BC604700BFC10000202B
:1028E000B5150010E1150010C5170010491A0010A9
:1028F0002118001095190010ED160010FD1500109C
:102900001D160010311600108D0A00103916001027
:10291000050E00107D150010E1090010B102001035
:042920001907001083
:102924002C29001011FF000080E0203F42BF01402D
:10293400A020010001E081E0E080216041606000AE
:1029440000F801B801B801F308000000008080809D
:1029540080800000000000000080808080800000F3
:1029640000808080808000000A2A2A2A2050414E5C
:102974004943202A2A2A0A000A0000004861726496
:102984007761726520616C61726D20256420616CD1
:10299400726561647920636C61696D65640000002F
:1029A4004861726420617373657274004F7574209A
:1029B4006F66206D656D6F727900000052656C65FD
:1029C40061736500626F6F74325F773235713038CE
:1029D40030000000322E322E300000007069636F28
:1029E400000000007069636F5F7461735F706C61F5
:1029F400796261636B0000004F63742032382032C7
:102A04003032350006005250D3F07542C029001010
:102A140006005250E182887FC829001006005250F7
:102A2400ABB36053D829001006005250BBFF3CB62C
:102A3400E029001006005250861C0302E829001009
:102A4400060052505422A29DFC2900100500525049
:0C2A5400DE65F4682C3200100D0A000052
:102A6000000B00140080808080800000005A0280EB
:102A700080CD808000000050008080808080000039
:102A800000050180808080800000009600808080AA
:102A9000808000000014108080808080000000286A
:102AA0000080808080800000000501808080808020
:102AB00000000028008080808080000000050180E8
:102AC00080808080000000B40080808080800000D2
:102AD000082A0010142A0010202A00102C2A0010A6
:0C2AE000382A0010442A0010502A001070
:102AEC00F0B5C646150000B504001E000268EFF3F1
:102AFC00108172B61368002BFCD0BFF35F8F0423D8
:102B0C00E3562268002B2BDBBFF35F8F0020106095
:102B1C0081F31088D02212061278002752B2904608
:102B2C009A420ED1002080BCB846F0BDBFF35F8F37
:102B3C00176081F310882800310000F035F8002868
:102B4C00F0D12268EFF3108172B61368002BFCD021
:102B5C00BFF35F8F237922687F2BE7D9434602E0CE
:102B6C00D0231B061B682371BFF35F8F00231360F8
:102B7C0081F310880120D6E70268EFF3108172B65A
:102B8C001368002BFCD0BFF35F8FFF230371036826
:102B9C00BFF35F8F00221A6081F3108840BF70472B
:102BAC007047C0460000000001B40248844601BCD6
:102BBC00604700BFF1100010100000000000000082
:102BCC0000000000000000000000000000000000F9
:102BDC0000080020000000000000000000000000C1
:102BEC00503300004C3300005433000052330000CB
:102BFC004D5300004D43000053340000433400009B
:102C0C00FFFFFFFF000002000000000000000000BA
:102C1C00E8010020E8010020F0010020F001002074
:102C2C00F8010020F8010020000200200002002022
:102C3C0008020020080200201002002010020020D0
:102C4C001802002018020020200200202002002080
:102C5C002802002028020020300200203002002030
:102C6C0038020020380200204002002040020020E0
:102C7C004802002048020020500200205002002090
:102C8C005802002058020020600200206002002040
:102C9C0068020020680200207002002070020020F0
:102CAC0078020020780200208002002080020020A0
:102CBC008802002088020020900200209002002050
:102CCC009802002098020020A0020020A002002000
:102CDC00A8020020A8020020B0020020B0020020B0
:102CEC00B8020020B8020020C0020020C002002060
:102CFC00C8020020C8020020D0020020D002002010
:102D0C00D8020020D8020020E0020020E0020020BF
:102D1C00E8020020E8020020F0020020F00200206F
:102D2C00F8020020F802002000030020000300201D
:102D3C0008030020080300201003002010030020CB
:102D4C00180300201803002020030020200300207B
:102D5C00280300202803002030030020300300202B
:102D6C0038030020380300204003002040030020DB
:102D7C00480300204803002050030020500300208B
:102D8C00580300205803002060030020600300203B
:102D9C0068030020680300207003002070030020EB
:102DAC00780300207803002080030020800300209B
:102DBC00880300208803002090030020900300204B
:102DCC009803002098030020A0030020A0030020FB
:102DDC00A8030020A8030020B0030020B0030020AB
:102DEC00B8030020B8030020C0030020C00300205B
:102DFC00C8030020C8030020D0030020D00300200B
:102E0C00D8030020D8030020E0030020E0030020BA
:102E1C00E8030020E8030020F0030020F00300206A
:102E2C00F8030020F8030020000400200004002018
:102E3C0008040020080400201004002010040020C6
:102E4C001804002018040020200400202004002076
:102E5C002804002028040020300400203004002026
:102E6C0038040020380400204004002040040020D6
:102E7C004804002048040020500400205004002086
:102E8C005804002058040020600400206004002036
:102E9C0068040020680400207004002070040020E6
:102EAC007804002078040020800400208004002096
:102EBC008804002088040020900400209004002046
:102ECC009804002098040020A0040020A0040020F6
:102EDC00A8040020A8040020B0040020B0040020A6
:102EEC00B8040020B8040020C0040020C004002056
:102EFC00C8040020C8040020D0040020D004002006
:102F0C00D8040020D8040020E0040020E0040020B5
:102F1C00E8040020E8040020F0040020F004002065
:102F2C00F8040020F8040020000500200005002013
:102F3C0008050020080500201005002010050020C1
:102F4C001805002018050020200500202005002071
:102F5C002805002028050020300500203005002021
:102F6C0038050020380500204005002040050020D1
:102F7C004805002048050020500500205005002081
:102F8C005805002058050020600500206005002031
:102F9C0068050020680500207005002070050020E1
:102FAC007805002078050020800500208005002091
:102FBC008805002088050020900500209005002041
:102FCC009805002098050020A0050020A0050020F1
:102FDC00A8050020A8050020B0050020B0050020A1
:102FEC00B8050020B8050020C0050020C005002051
:102FFC00C8050020C8050020D0050020D005002001
:10300C00D8050020D8050020E0050020E0050020B0
:10301C00F80500200000000000000000C80B002094
:10302C00300C0020980C0020000000000000000074
:10303C000000000000000000000000000000000084
:10304C000000000000000000000000000000000074
:10305C000000000000000000000000000000000064
:10306C000000000000000000000000000000000054
:10307C000000000000000000000000000000000044
:10308C000000000000000000000000000000000034
:10309C000000000000000000000000000000000024
:1030AC000000000000000000000000000000000014
:1030BC0001000000000000000E33CDAB34126DE6B1
:1030CC00ECDE05000B00000000000000000000001A
:1030DC0000000000000000000000000000000000E4
:1030EC0000000000000000000000000000000000D4
:1030FC0000000000000000000000000000000000C4
:10310C0000000000000000000000000000000000B3
:10311C0000000000000000000000000000000000A3
:10312C000000000000000000000000000000000093
:10313C000000000000000000000000000000000083
:10314C000000000000000000000000000000000073
:10315C000000000000000000000000000000000063
:10316C000000000000000000000000000000000053
:10317C000000000000000000000000000000000043
:10318C000000000000000000000000000000000033
:10319C000000000000000000000000000000000023
:1031AC000000000000000000000000000000000013
:1031BC000000000000000000000000000000000003
:1031CC0000000000000000000000000000000000F3
:1031DC0000000000000000000000000000000000E3
:1031EC0000000000000000000000000000000000D3
:1031FC0000000000000000000000000000000000C3
:10320C0000000000000000000000000000000000B2
:10321C0000000000000000000000000000000000A2
:04000005100001E9FD
:00000001FF
